{
  "_format": "hh-sol-artifact-1",
  "contractName": "Voting",
  "sourceName": "contracts/Voting.sol",
  "abi": [
    {
      "inputs": [],
      "stateMutability": "nonpayable",
      "type": "constructor"
    },
    {
      "inputs": [
        {
          "internalType": "string",
          "name": "_name",
          "type": "string"
        }
      ],
      "name": "addCandidate",
      "outputs": [],
      "stateMutability": "nonpayable",
      "type": "function"
    },
    {
      "inputs": [
        {
          "internalType": "uint256",
          "name": "",
          "type": "uint256"
        }
      ],
      "name": "candidates",
      "outputs": [
        {
          "internalType": "uint256",
          "name": "id",
          "type": "uint256"
        },
        {
          "internalType": "string",
          "name": "name",
          "type": "string"
        },
        {
          "internalType": "uint256",
          "name": "numberOfVotes",
          "type": "uint256"
        }
      ],
      "stateMutability": "view",
      "type": "function"
    },
    {
      "inputs": [],
      "name": "checkElectionPeriod",
      "outputs": [
        {
          "internalType": "bool",
          "name": "",
          "type": "bool"
        }
      ],
      "stateMutability": "view",
      "type": "function"
    },
    {
      "inputs": [],
      "name": "electionStarted",
      "outputs": [
        {
          "internalType": "bool",
          "name": "",
          "type": "bool"
        }
      ],
      "stateMutability": "view",
      "type": "function"
    },
    {
      "inputs": [],
      "name": "electionTimer",
      "outputs": [
        {
          "internalType": "uint256",
          "name": "",
          "type": "uint256"
        }
      ],
      "stateMutability": "view",
      "type": "function"
    },
    {
      "inputs": [
        {
          "internalType": "uint256",
          "name": "",
          "type": "uint256"
        }
      ],
      "name": "listOfVoters",
      "outputs": [
        {
          "internalType": "address",
          "name": "",
          "type": "address"
        }
      ],
      "stateMutability": "view",
      "type": "function"
    },
    {
      "inputs": [],
      "name": "owner",
      "outputs": [
        {
          "internalType": "address",
          "name": "",
          "type": "address"
        }
      ],
      "stateMutability": "view",
      "type": "function"
    },
    {
      "inputs": [],
      "name": "retrieveVotes",
      "outputs": [
        {
          "components": [
            {
              "internalType": "uint256",
              "name": "id",
              "type": "uint256"
            },
            {
              "internalType": "string",
              "name": "name",
              "type": "string"
            },
            {
              "internalType": "uint256",
              "name": "numberOfVotes",
              "type": "uint256"
            }
          ],
          "internalType": "struct Voting.Candidate[]",
          "name": "",
          "type": "tuple[]"
        }
      ],
      "stateMutability": "view",
      "type": "function"
    },
    {
      "inputs": [
        {
          "internalType": "string[]",
          "name": "_candidates",
          "type": "string[]"
        },
        {
          "internalType": "uint256",
          "name": "_votingDuration",
          "type": "uint256"
        }
      ],
      "name": "startElection",
      "outputs": [],
      "stateMutability": "nonpayable",
      "type": "function"
    },
    {
      "inputs": [
        {
          "internalType": "uint256",
          "name": "_id",
          "type": "uint256"
        }
      ],
      "name": "voteTo",
      "outputs": [],
      "stateMutability": "nonpayable",
      "type": "function"
    },
    {
      "inputs": [
        {
          "internalType": "address",
          "name": "_voter",
          "type": "address"
        }
      ],
      "name": "voterStatus",
      "outputs": [
        {
          "internalType": "bool",
          "name": "",
          "type": "bool"
        }
      ],
      "stateMutability": "view",
      "type": "function"
    },
    {
      "inputs": [
        {
          "internalType": "address",
          "name": "",
          "type": "address"
        }
      ],
      "name": "voters",
      "outputs": [
        {
          "internalType": "bool",
          "name": "",
          "type": "bool"
        }
      ],
      "stateMutability": "view",
      "type": "function"
    },
    {
      "inputs": [],
      "name": "votingEnd",
      "outputs": [
        {
          "internalType": "uint256",
          "name": "",
          "type": "uint256"
        }
      ],
      "stateMutability": "view",
      "type": "function"
    },
    {
      "inputs": [],
      "name": "votingStart",
      "outputs": [
        {
          "internalType": "uint256",
          "name": "",
          "type": "uint256"
        }
      ],
      "stateMutability": "view",
      "type": "function"
    }
  ],
  "bytecode": "0x608060405234801561001057600080fd5b5033600160006101000a81548173ffffffffffffffffffffffffffffffffffffffff021916908373ffffffffffffffffffffffffffffffffffffffff160217905550611b27806100616000396000f3fe608060405234801561001057600080fd5b50600436106100ea5760003560e01c8063576cc4f21161008c5780639a53cbea116100665780639a53cbea1461023b578063a3ec138d1461026b578063d4a6cac81461029b578063d5346da1146102b9576100ea565b8063576cc4f2146101cf57806385a38635146101ff5780638da5cb5b1461021d576100ea565b80633477ee2e116100c85780633477ee2e146101475780633c9a4df3146101795780633d7b995c14610197578063462e91ec146101b3576100ea565b8063031e5004146100ef5780630b56a6811461010d578063101158af14610129575b600080fd5b6100f76102d7565b6040516101049190610f03565b60405180910390f35b61012760048036038101906101229190611180565b6103dc565b005b6101316105bb565b60405161013e91906111eb565b60405180910390f35b610161600480360381019061015c9190611206565b6105c1565b6040516101709392919061127d565b60405180910390f35b610181610683565b60405161018e91906111eb565b60405180910390f35b6101b160048036038101906101ac9190611206565b6106fa565b005b6101cd60048036038101906101c891906112bb565b610932565b005b6101e960048036038101906101e49190611362565b610adf565b6040516101f691906113aa565b60405180910390f35b610207610b84565b60405161021491906111eb565b60405180910390f35b610225610b8a565b60405161023291906113d4565b60405180910390f35b61025560048036038101906102509190611206565b610bb0565b60405161026291906113d4565b60405180910390f35b61028560048036038101906102809190611362565b610bef565b60405161029291906113aa565b60405180910390f35b6102a3610c0f565b6040516102b091906113aa565b60405180910390f35b6102c1610c33565b6040516102ce91906113aa565b60405180910390f35b60606000805480602002602001604051908101604052809291908181526020016000905b828210156103d35783829060005260206000209060030201604051806060016040529081600082015481526020016001820180546103389061141e565b80601f01602080910402602001604051908101604052809291908181526020018280546103649061141e565b80156103b15780601f10610386576101008083540402835291602001916103b1565b820191906000526020600020905b81548152906001019060200180831161039457829003601f168201915b50505050508152602001600282015481525050815260200190600101906102fb565b50505050905090565b600160009054906101000a900473ffffffffffffffffffffffffffffffffffffffff1673ffffffffffffffffffffffffffffffffffffffff163373ffffffffffffffffffffffffffffffffffffffff161461046c576040517f08c379a0000000000000000000000000000000000000000000000000000000008152600401610463906114c1565b60405180910390fd5b600660009054906101000a900460ff16156104bc576040517f08c379a00000000000000000000000000000000000000000000000000000000081526004016104b39061152d565b60405180910390fd5b6104c4610c46565b60005b825181101561057657600060405180606001604052806001846104ea919061157c565b8152602001858481518110610502576105016115b0565b5b602002602001015181526020016000815250908060018154018082558091505060019003906000526020600020906003020160009091909190915060008201518160000155602082015181600101908161055c919061178b565b5060408201518160020155505080806001019150506104c7565b506001600660006101000a81548160ff02191690831515021790555042600481905550603c816105a6919061185d565b426105b1919061157c565b6005819055505050565b60045481565b600081815481106105d157600080fd5b90600052602060002090600302016000915090508060000154908060010180546105fa9061141e565b80601f01602080910402602001604051908101604052809291908181526020018280546106269061141e565b80156106735780601f1061064857610100808354040283529160200191610673565b820191906000526020600020905b81548152906001019060200180831161065657829003601f168201915b5050505050908060020154905083565b6000600660009054906101000a900460ff166106d4576040517f08c379a00000000000000000000000000000000000000000000000000000000081526004016106cb906118eb565b60405180910390fd5b60055442106106e657600090506106f7565b426005546106f4919061190b565b90505b90565b600660009054906101000a900460ff16610749576040517f08c379a0000000000000000000000000000000000000000000000000000000008152600401610740906118eb565b60405180910390fd5b610751610c0f565b610790576040517f08c379a00000000000000000000000000000000000000000000000000000000081526004016107879061198b565b60405180910390fd5b61079933610adf565b156107d9576040517f08c379a00000000000000000000000000000000000000000000000000000000081526004016107d090611a1d565b60405180910390fd5b6000811180156107ee57506000805490508111155b61082d576040517f08c379a000000000000000000000000000000000000000000000000000000000815260040161082490611a89565b60405180910390fd5b600060018261083c919061190b565b8154811061084d5761084c6115b0565b5b9060005260206000209060030201600201600081548092919061086f90611aa9565b91905055506001600260003373ffffffffffffffffffffffffffffffffffffffff1673ffffffffffffffffffffffffffffffffffffffff16815260200190815260200160002060006101000a81548160ff0219169083151502179055506003339080600181540180825580915050600190039060005260206000200160009091909190916101000a81548173ffffffffffffffffffffffffffffffffffffffff021916908373ffffffffffffffffffffffffffffffffffffffff16021790555050565b600160009054906101000a900473ffffffffffffffffffffffffffffffffffffffff1673ffffffffffffffffffffffffffffffffffffffff163373ffffffffffffffffffffffffffffffffffffffff16146109c2576040517f08c379a00000000000000000000000000000000000000000000000000000000081526004016109b9906114c1565b60405180910390fd5b600660009054906101000a900460ff16610a11576040517f08c379a0000000000000000000000000000000000000000000000000000000008152600401610a08906118eb565b60405180910390fd5b610a19610c0f565b610a58576040517f08c379a0000000000000000000000000000000000000000000000000000000008152600401610a4f9061198b565b60405180910390fd5b600060405180606001604052806001600080549050610a77919061157c565b815260200183815260200160008152509080600181540180825580915050600190039060005260206000209060030201600090919091909150600082015181600001556020820151816001019081610acf919061178b565b5060408201518160020155505050565b6000600660009054906101000a900460ff16610b30576040517f08c379a0000000000000000000000000000000000000000000000000000000008152600401610b27906118eb565b60405180910390fd5b600260008373ffffffffffffffffffffffffffffffffffffffff1673ffffffffffffffffffffffffffffffffffffffff16815260200190815260200160002060009054906101000a900460ff169050919050565b60055481565b600160009054906101000a900473ffffffffffffffffffffffffffffffffffffffff1681565b60038181548110610bc057600080fd5b906000526020600020016000915054906101000a900473ffffffffffffffffffffffffffffffffffffffff1681565b60026020528060005260406000206000915054906101000a900460ff1681565b6000600660009054906101000a900460ff168015610c2e575060055442105b905090565b600660009054906101000a900460ff1681565b60005b600380549050811015610cf95760006002600060038481548110610c7057610c6f6115b0565b5b9060005260206000200160009054906101000a900473ffffffffffffffffffffffffffffffffffffffff1673ffffffffffffffffffffffffffffffffffffffff1673ffffffffffffffffffffffffffffffffffffffff16815260200190815260200160002060006101000a81548160ff0219169083151502179055508080600101915050610c49565b5060036000610d089190610d0a565b565b5080546000825590600052602060002090810190610d289190610d2b565b50565b5b80821115610d44576000816000905550600101610d2c565b5090565b600081519050919050565b600082825260208201905092915050565b6000819050602082019050919050565b6000819050919050565b610d8781610d74565b82525050565b600081519050919050565b600082825260208201905092915050565b60005b83811015610dc7578082015181840152602081019050610dac565b60008484015250505050565b6000601f19601f8301169050919050565b6000610def82610d8d565b610df98185610d98565b9350610e09818560208601610da9565b610e1281610dd3565b840191505092915050565b6000606083016000830151610e356000860182610d7e565b5060208301518482036020860152610e4d8282610de4565b9150506040830151610e626040860182610d7e565b508091505092915050565b6000610e798383610e1d565b905092915050565b6000602082019050919050565b6000610e9982610d48565b610ea38185610d53565b935083602082028501610eb585610d64565b8060005b85811015610ef15784840389528151610ed28582610e6d565b9450610edd83610e81565b925060208a01995050600181019050610eb9565b50829750879550505050505092915050565b60006020820190508181036000830152610f1d8184610e8e565b905092915050565b6000604051905090565b600080fd5b600080fd5b600080fd5b7f4e487b7100000000000000000000000000000000000000000000000000000000600052604160045260246000fd5b610f7682610dd3565b810181811067ffffffffffffffff82111715610f9557610f94610f3e565b5b80604052505050565b6000610fa8610f25565b9050610fb48282610f6d565b919050565b600067ffffffffffffffff821115610fd457610fd3610f3e565b5b602082029050602081019050919050565b600080fd5b600080fd5b600067ffffffffffffffff82111561100a57611009610f3e565b5b61101382610dd3565b9050602081019050919050565b82818337600083830152505050565b600061104261103d84610fef565b610f9e565b90508281526020810184848401111561105e5761105d610fea565b5b611069848285611020565b509392505050565b600082601f83011261108657611085610f39565b5b813561109684826020860161102f565b91505092915050565b60006110b26110ad84610fb9565b610f9e565b905080838252602082019050602084028301858111156110d5576110d4610fe5565b5b835b8181101561111c57803567ffffffffffffffff8111156110fa576110f9610f39565b5b8086016111078982611071565b855260208501945050506020810190506110d7565b5050509392505050565b600082601f83011261113b5761113a610f39565b5b813561114b84826020860161109f565b91505092915050565b61115d81610d74565b811461116857600080fd5b50565b60008135905061117a81611154565b92915050565b6000806040838503121561119757611196610f2f565b5b600083013567ffffffffffffffff8111156111b5576111b4610f34565b5b6111c185828601611126565b92505060206111d28582860161116b565b9150509250929050565b6111e581610d74565b82525050565b600060208201905061120060008301846111dc565b92915050565b60006020828403121561121c5761121b610f2f565b5b600061122a8482850161116b565b91505092915050565b600082825260208201905092915050565b600061124f82610d8d565b6112598185611233565b9350611269818560208601610da9565b61127281610dd3565b840191505092915050565b600060608201905061129260008301866111dc565b81810360208301526112a48185611244565b90506112b360408301846111dc565b949350505050565b6000602082840312156112d1576112d0610f2f565b5b600082013567ffffffffffffffff8111156112ef576112ee610f34565b5b6112fb84828501611071565b91505092915050565b600073ffffffffffffffffffffffffffffffffffffffff82169050919050565b600061132f82611304565b9050919050565b61133f81611324565b811461134a57600080fd5b50565b60008135905061135c81611336565b92915050565b60006020828403121561137857611377610f2f565b5b60006113868482850161134d565b91505092915050565b60008115159050919050565b6113a48161138f565b82525050565b60006020820190506113bf600083018461139b565b92915050565b6113ce81611324565b82525050565b60006020820190506113e960008301846113c5565b92915050565b7f4e487b7100000000000000000000000000000000000000000000000000000000600052602260045260246000fd5b6000600282049050600182168061143657607f821691505b602082108103611449576114486113ef565b5b50919050565b7f4f6e6c7920746865206f776e65722063616e20706572666f726d20746869732060008201527f616374696f6e0000000000000000000000000000000000000000000000000000602082015250565b60006114ab602683611233565b91506114b68261144f565b604082019050919050565b600060208201905081810360008301526114da8161149e565b9050919050565b7f456c656374696f6e20697320616c7265616479206f6e676f696e670000000000600082015250565b6000611517601b83611233565b9150611522826114e1565b602082019050919050565b600060208201905081810360008301526115468161150a565b9050919050565b7f4e487b7100000000000000000000000000000000000000000000000000000000600052601160045260246000fd5b600061158782610d74565b915061159283610d74565b92508282019050808211156115aa576115a961154d565b5b92915050565b7f4e487b7100000000000000000000000000000000000000000000000000000000600052603260045260246000fd5b60008190508160005260206000209050919050565b60006020601f8301049050919050565b600082821b905092915050565b6000600883026116417fffffffffffffffffffffffffffffffffffffffffffffffffffffffffffffffff82611604565b61164b8683611604565b95508019841693508086168417925050509392505050565b6000819050919050565b600061168861168361167e84610d74565b611663565b610d74565b9050919050565b6000819050919050565b6116a28361166d565b6116b66116ae8261168f565b848454611611565b825550505050565b600090565b6116cb6116be565b6116d6818484611699565b505050565b5b818110156116fa576116ef6000826116c3565b6001810190506116dc565b5050565b601f82111561173f57611710816115df565b611719846115f4565b81016020851015611728578190505b61173c611734856115f4565b8301826116db565b50505b505050565b600082821c905092915050565b600061176260001984600802611744565b1980831691505092915050565b600061177b8383611751565b9150826002028217905092915050565b61179482610d8d565b67ffffffffffffffff8111156117ad576117ac610f3e565b5b6117b7825461141e565b6117c28282856116fe565b600060209050601f8311600181146117f557600084156117e3578287015190505b6117ed858261176f565b865550611855565b601f198416611803866115df565b60005b8281101561182b57848901518255600182019150602085019450602081019050611806565b868310156118485784890151611844601f891682611751565b8355505b6001600288020188555050505b505050505050565b600061186882610d74565b915061187383610d74565b925082820261188181610d74565b915082820484148315176118985761189761154d565b5b5092915050565b7f4e6f20656c656374696f6e2069732063757272656e746c79206f6e676f696e67600082015250565b60006118d5602083611233565b91506118e08261189f565b602082019050919050565b60006020820190508181036000830152611904816118c8565b9050919050565b600061191682610d74565b915061192183610d74565b92508282039050818111156119395761193861154d565b5b92915050565b7f456c656374696f6e20706572696f642068617320656e64656400000000000000600082015250565b6000611975601983611233565b91506119808261193f565b602082019050919050565b600060208201905081810360008301526119a481611968565b9050919050565b7f596f7520616c726561647920766f7465642e20596f752063616e206f6e6c792060008201527f766f7465206f6e63652e00000000000000000000000000000000000000000000602082015250565b6000611a07602a83611233565b9150611a12826119ab565b604082019050919050565b60006020820190508181036000830152611a36816119fa565b9050919050565b7f496e76616c69642063616e646964617465204944000000000000000000000000600082015250565b6000611a73601483611233565b9150611a7e82611a3d565b602082019050919050565b60006020820190508181036000830152611aa281611a66565b9050919050565b6000611ab482610d74565b91507fffffffffffffffffffffffffffffffffffffffffffffffffffffffffffffffff8203611ae657611ae561154d565b5b60018201905091905056fea264697066735822122000ac6f37522e2e9e2b43fb840dcafecf1411d50356cf28644582c38a26a015c564736f6c63430008180033",
  "linkReferences": {},
  "deployedLinkReferences": {}
}